{
  "contracts/RoomBooking.sol": {
    "RoomBooking": {
      "abi": [
        {
          "inputs": [
            {
              "internalType": "string[]",
              "name": "_companies",
              "type": "string[]"
            },
            {
              "internalType": "address[]",
              "name": "_addresses",
              "type": "address[]"
            }
          ],
          "stateMutability": "nonpayable",
          "type": "constructor"
        },
        {
          "anonymous": false,
          "inputs": [
            {
              "indexed": false,
              "internalType": "address",
              "name": "_occupant",
              "type": "address"
            },
            {
              "indexed": false,
              "internalType": "string",
              "name": "_company",
              "type": "string"
            },
            {
              "indexed": false,
              "internalType": "uint8",
              "name": "_slot",
              "type": "uint8"
            },
            {
              "indexed": false,
              "internalType": "uint8",
              "name": "_roomSpace",
              "type": "uint8"
            }
          ],
          "name": "Canceled",
          "type": "event"
        },
        {
          "anonymous": false,
          "inputs": [
            {
              "indexed": false,
              "internalType": "address",
              "name": "_occupant",
              "type": "address"
            },
            {
              "indexed": false,
              "internalType": "string",
              "name": "_company",
              "type": "string"
            },
            {
              "indexed": false,
              "internalType": "uint8",
              "name": "_slot",
              "type": "uint8"
            },
            {
              "indexed": false,
              "internalType": "uint8",
              "name": "_roomSpace",
              "type": "uint8"
            }
          ],
          "name": "Reserved",
          "type": "event"
        },
        {
          "anonymous": false,
          "inputs": [
            {
              "indexed": false,
              "internalType": "string",
              "name": "_company",
              "type": "string"
            },
            {
              "indexed": false,
              "internalType": "address",
              "name": "_address",
              "type": "address"
            }
          ],
          "name": "Whitelisted",
          "type": "event"
        },
        {
          "inputs": [],
          "name": "MAX_ROOM",
          "outputs": [
            {
              "internalType": "uint8",
              "name": "",
              "type": "uint8"
            }
          ],
          "stateMutability": "view",
          "type": "function"
        },
        {
          "inputs": [],
          "name": "MAX_SLOT",
          "outputs": [
            {
              "internalType": "uint8",
              "name": "",
              "type": "uint8"
            }
          ],
          "stateMutability": "view",
          "type": "function"
        },
        {
          "inputs": [
            {
              "internalType": "string",
              "name": "_company",
              "type": "string"
            },
            {
              "internalType": "address",
              "name": "_address",
              "type": "address"
            }
          ],
          "name": "addWhitelist",
          "outputs": [],
          "stateMutability": "nonpayable",
          "type": "function"
        },
        {
          "inputs": [
            {
              "internalType": "string",
              "name": "_company",
              "type": "string"
            },
            {
              "internalType": "uint8",
              "name": "_slot",
              "type": "uint8"
            },
            {
              "internalType": "uint8",
              "name": "_roomSpace",
              "type": "uint8"
            }
          ],
          "name": "cancelRoomSpace",
          "outputs": [],
          "stateMutability": "nonpayable",
          "type": "function"
        },
        {
          "inputs": [],
          "name": "getCompanies",
          "outputs": [
            {
              "internalType": "string[]",
              "name": "",
              "type": "string[]"
            }
          ],
          "stateMutability": "view",
          "type": "function"
        },
        {
          "inputs": [
            {
              "internalType": "string",
              "name": "_company",
              "type": "string"
            },
            {
              "internalType": "uint8",
              "name": "_slot",
              "type": "uint8"
            },
            {
              "internalType": "uint8",
              "name": "_roomSpace",
              "type": "uint8"
            }
          ],
          "name": "reserveRoomSpace",
          "outputs": [],
          "stateMutability": "nonpayable",
          "type": "function"
        },
        {
          "inputs": [
            {
              "internalType": "string",
              "name": "",
              "type": "string"
            },
            {
              "internalType": "uint8",
              "name": "",
              "type": "uint8"
            },
            {
              "internalType": "uint256",
              "name": "",
              "type": "uint256"
            }
          ],
          "name": "roomlist",
          "outputs": [
            {
              "internalType": "bool",
              "name": "booked",
              "type": "bool"
            },
            {
              "internalType": "address",
              "name": "owner",
              "type": "address"
            }
          ],
          "stateMutability": "view",
          "type": "function"
        },
        {
          "inputs": [
            {
              "internalType": "string",
              "name": "",
              "type": "string"
            },
            {
              "internalType": "address",
              "name": "",
              "type": "address"
            }
          ],
          "name": "whitelist",
          "outputs": [
            {
              "internalType": "bool",
              "name": "",
              "type": "bool"
            }
          ],
          "stateMutability": "view",
          "type": "function"
        }
      ],
      "devdoc": {
        "kind": "dev",
        "methods": {},
        "version": 1
      },
      "evm": {
        "bytecode": {
          "linkReferences": {},
          "object": "60806040523480156200001157600080fd5b506040516200118438038062001184833981016040819052620000349162000308565b81516200004990600290602085019062000113565b5060005b82518110156200010a576001808483815181106200007b57634e487b7160e01b600052603260045260246000fd5b60200260200101516040516200009291906200043f565b90815260200160405180910390206000848481518110620000c357634e487b7160e01b600052603260045260246000fd5b6020908102919091018101516001600160a01b03168252810191909152604001600020805460ff191691151591909117905580620001018162000526565b9150506200004d565b50505062000564565b82805482825590600052602060002090810192821562000165579160200282015b828111156200016557825180516200015491849160209091019062000177565b509160200191906001019062000134565b506200017392915062000202565b5090565b8280546200018590620004e9565b90600052602060002090601f016020900481019282620001a95760008555620001f4565b82601f10620001c457805160ff1916838001178555620001f4565b82800160010185558215620001f4579182015b82811115620001f4578251825591602001919060010190620001d7565b506200017392915062000223565b80821115620001735760006200021982826200023a565b5060010162000202565b5b8082111562000173576000815560010162000224565b5080546200024890620004e9565b6000825580601f1062000259575050565b601f01602090049060005260206000209081019062000279919062000223565b50565b600082601f8301126200028d578081fd5b81516020620002a6620002a08362000490565b6200045d565b80838252828201915082860187848660051b8901011115620002c6578586fd5b855b85811015620002fb5781516001600160a01b0381168114620002e8578788fd5b84529284019290840190600101620002c8565b5090979650505050505050565b60008060408084860312156200031c578283fd5b83516001600160401b038082111562000333578485fd5b818601915086601f83011262000347578485fd5b815160206200035a620002a08362000490565b8083825282820191508286018b848660051b89010111156200037a57898afd5b895b858110156200040a5781518781111562000394578b8cfd5b8801603f81018e13620003a5578b8cfd5b8581015188811115620003bc57620003bc6200054e565b620003d0601f8201601f191688016200045d565b8181528f8c838501011115620003e4578d8efd5b620003f5828983018e8601620004b6565b8652505092840192908401906001016200037c565b50509189015191975090945050508083111562000425578384fd5b505062000435858286016200027c565b9150509250929050565b6000825162000453818460208701620004b6565b9190910192915050565b604051601f8201601f191681016001600160401b03811182821017156200048857620004886200054e565b604052919050565b60006001600160401b03821115620004ac57620004ac6200054e565b5060051b60200190565b60005b83811015620004d3578181015183820152602001620004b9565b83811115620004e3576000848401525b50505050565b600181811c90821680620004fe57607f821691505b602082108114156200052057634e487b7160e01b600052602260045260246000fd5b50919050565b60006000198214156200054757634e487b7160e01b81526011600452602481fd5b5060010190565b634e487b7160e01b600052604160045260246000fd5b610c1080620005746000396000f3fe608060405234801561001057600080fd5b50600436106100885760003560e01c8063c42a8cff1161005b578063c42a8cff14610105578063eaca3e611461011f578063f4a96d221461016d578063fd9b61361461017557600080fd5b80630199abce1461008d5780630c0b6691146100a25780637224a401146100c0578063b8f12daf146100d3575b600080fd5b6100a061009b36600461093b565b610188565b005b6100aa610306565b6040516100b79190610ace565b60405180910390f35b6100a06100ce3660046109eb565b6103df565b6100e66100e1366004610996565b610620565b6040805192151583526001600160a01b039091166020830152016100b7565b61010d600a81565b60405160ff90911681526020016100b7565b61015d61012d36600461093b565b81516020818401810180516001825292820194820194909420919093529091526000908152604090205460ff1681565b60405190151581526020016100b7565b61010d600881565b6100a06101833660046109eb565b61066d565b6001826040516101989190610a73565b9081526040805160209281900383019020336000908152925290205460ff166102015760405162461bcd60e51b81526020600482015260166024820152754f7065726174696f6e206e6f7420616c6c6f7765642160501b60448201526064015b60405180910390fd5b6001826040516102119190610a73565b90815260408051602092819003830190206001600160a01b0384166000908152925290205460ff16156102865760405162461bcd60e51b815260206004820152601c60248201527f4164647265737320616c72656164792077686974656c6973746564210000000060448201526064016101f8565b600180836040516102979190610a73565b90815260408051602092819003830181206001600160a01b038616600090815293529120805460ff1916921515929092179091557f9708c549f753b882994a07fb0326b5882eb86e39e5ae87c42a49377246197869906102fa9084908490610b2f565b60405180910390a15050565b60606002805480602002602001604051908101604052809291908181526020016000905b828210156103d657838290600052602060002001805461034990610b89565b80601f016020809104026020016040519081016040528092919081815260200182805461037590610b89565b80156103c25780601f10610397576101008083540402835291602001916103c2565b820191906000526020600020905b8154815290600101906020018083116103a557829003601f168201915b50505050508152602001906001019061032a565b50505050905090565b81600860ff82161061042b5760405162461bcd60e51b8152602060048201526015602482015274536c6f74206973206f7574206f662072616e67652160581b60448201526064016101f8565b81600a60ff8216106104775760405162461bcd60e51b8152602060048201526015602482015274526f6f6d206973206f7574206f662072616e67652160581b60448201526064016101f8565b6001856040516104879190610a73565b9081526040805160209281900383019020336000908152925290205460ff166104f25760405162461bcd60e51b815260206004820152601c60248201527f4e6f7420616c6c6f77656420746f207265736572766520726f6f6d210000000060448201526064016101f8565b60016000866040516105049190610a73565b908152602001604051809103902060008660ff1660ff1681526020019081526020016000208460ff16600a811061054b57634e487b7160e01b600052603260045260246000fd5b01805460ff1916911515919091179055604051339060009061056e908890610a73565b908152602001604051809103902060008660ff1660ff1681526020019081526020016000208460ff16600a81106105b557634e487b7160e01b600052603260045260246000fd5b0180546001600160a01b039290921661010002610100600160a81b03199092169190911790556040517f4e1891727ee35a3ceb1ba877124c34ba45ee786f217d7d40d9dad77fd683813190610611903390889088908890610a8f565b60405180910390a15050505050565b8251602081850181018051600080835293830183880120915290528281526040902081600a811061065057600080fd5b015460ff8116935061010090046001600160a01b03169150839050565b81600860ff8216106106b95760405162461bcd60e51b8152602060048201526015602482015274536c6f74206973206f7574206f662072616e67652160581b60448201526064016101f8565b81600a60ff8216106107055760405162461bcd60e51b8152602060048201526015602482015274526f6f6d206973206f7574206f662072616e67652160581b60448201526064016101f8565b6001856040516107159190610a73565b9081526040805160209281900383019020336000908152925290205460ff166107805760405162461bcd60e51b815260206004820152601b60248201527f4e6f7420616c6c6f77656420746f2063616e63656c20726f6f6d21000000000060448201526064016101f8565b600080866040516107919190610a73565b908152602001604051809103902060008660ff1660ff1681526020019081526020016000208460ff16600a81106107d857634e487b7160e01b600052603260045260246000fd5b01805460ff191691151591909117905560405160009081906107fb908890610a73565b908152602001604051809103902060008660ff1660ff1681526020019081526020016000208460ff16600a811061084257634e487b7160e01b600052603260045260246000fd5b0180546001600160a01b039290921661010002610100600160a81b03199092169190911790556040517f57958b0fcd4d01b2a77f5bafca296cac447f05a395ac45f724918534a6be678690610611903390889088908890610a8f565b600082601f8301126108ae578081fd5b813567ffffffffffffffff808211156108c9576108c9610bc4565b604051601f8301601f19908116603f011681019082821181831017156108f1576108f1610bc4565b81604052838152866020858801011115610909578485fd5b8360208701602083013792830160200193909352509392505050565b803560ff8116811461093657600080fd5b919050565b6000806040838503121561094d578182fd5b823567ffffffffffffffff811115610963578283fd5b61096f8582860161089e565b92505060208301356001600160a01b038116811461098b578182fd5b809150509250929050565b6000806000606084860312156109aa578081fd5b833567ffffffffffffffff8111156109c0578182fd5b6109cc8682870161089e565b9350506109db60208501610925565b9150604084013590509250925092565b6000806000606084860312156109ff578283fd5b833567ffffffffffffffff811115610a15578384fd5b610a218682870161089e565b935050610a3060208501610925565b9150610a3e60408501610925565b90509250925092565b60008151808452610a5f816020860160208601610b59565b601f01601f19169290920160200192915050565b60008251610a85818460208701610b59565b9190910192915050565b6001600160a01b0385168152608060208201819052600090610ab390830186610a47565b60ff9485166040840152929093166060909101529392505050565b6000602080830181845280855180835260408601915060408160051b8701019250838701855b82811015610b2257603f19888603018452610b10858351610a47565b94509285019290850190600101610af4565b5092979650505050505050565b604081526000610b426040830185610a47565b905060018060a01b03831660208301529392505050565b60005b83811015610b74578181015183820152602001610b5c565b83811115610b83576000848401525b50505050565b600181811c90821680610b9d57607f821691505b60208210811415610bbe57634e487b7160e01b600052602260045260246000fd5b50919050565b634e487b7160e01b600052604160045260246000fdfea264697066735822122056df5db1869f8f6eec6342d625dfac33bedb0fb8d5dbc610289d77fe502864f464736f6c63430008040033",
          "opcodes": "PUSH1 0x80 PUSH1 0x40 MSTORE CALLVALUE DUP1 ISZERO PUSH3 0x11 JUMPI PUSH1 0x0 DUP1 REVERT JUMPDEST POP PUSH1 0x40 MLOAD PUSH3 0x1184 CODESIZE SUB DUP1 PUSH3 0x1184 DUP4 CODECOPY DUP2 ADD PUSH1 0x40 DUP2 SWAP1 MSTORE PUSH3 0x34 SWAP2 PUSH3 0x308 JUMP JUMPDEST DUP2 MLOAD PUSH3 0x49 SWAP1 PUSH1 0x2 SWAP1 PUSH1 0x20 DUP6 ADD SWAP1 PUSH3 0x113 JUMP JUMPDEST POP PUSH1 0x0 JUMPDEST DUP3 MLOAD DUP2 LT ISZERO PUSH3 0x10A JUMPI PUSH1 0x1 DUP1 DUP5 DUP4 DUP2 MLOAD DUP2 LT PUSH3 0x7B JUMPI PUSH4 0x4E487B71 PUSH1 0xE0 SHL PUSH1 0x0 MSTORE PUSH1 0x32 PUSH1 0x4 MSTORE PUSH1 0x24 PUSH1 0x0 REVERT JUMPDEST PUSH1 0x20 MUL PUSH1 0x20 ADD ADD MLOAD PUSH1 0x40 MLOAD PUSH3 0x92 SWAP2 SWAP1 PUSH3 0x43F JUMP JUMPDEST SWAP1 DUP2 MSTORE PUSH1 0x20 ADD PUSH1 0x40 MLOAD DUP1 SWAP2 SUB SWAP1 KECCAK256 PUSH1 0x0 DUP5 DUP5 DUP2 MLOAD DUP2 LT PUSH3 0xC3 JUMPI PUSH4 0x4E487B71 PUSH1 0xE0 SHL PUSH1 0x0 MSTORE PUSH1 0x32 PUSH1 0x4 MSTORE PUSH1 0x24 PUSH1 0x0 REVERT JUMPDEST PUSH1 0x20 SWAP1 DUP2 MUL SWAP2 SWAP1 SWAP2 ADD DUP2 ADD MLOAD PUSH1 0x1 PUSH1 0x1 PUSH1 0xA0 SHL SUB AND DUP3 MSTORE DUP2 ADD SWAP2 SWAP1 SWAP2 MSTORE PUSH1 0x40 ADD PUSH1 0x0 KECCAK256 DUP1 SLOAD PUSH1 0xFF NOT AND SWAP2 ISZERO ISZERO SWAP2 SWAP1 SWAP2 OR SWAP1 SSTORE DUP1 PUSH3 0x101 DUP2 PUSH3 0x526 JUMP JUMPDEST SWAP2 POP POP PUSH3 0x4D JUMP JUMPDEST POP POP POP PUSH3 0x564 JUMP JUMPDEST DUP3 DUP1 SLOAD DUP3 DUP3 SSTORE SWAP1 PUSH1 0x0 MSTORE PUSH1 0x20 PUSH1 0x0 KECCAK256 SWAP1 DUP2 ADD SWAP3 DUP3 ISZERO PUSH3 0x165 JUMPI SWAP2 PUSH1 0x20 MUL DUP3 ADD JUMPDEST DUP3 DUP2 GT ISZERO PUSH3 0x165 JUMPI DUP3 MLOAD DUP1 MLOAD PUSH3 0x154 SWAP2 DUP5 SWAP2 PUSH1 0x20 SWAP1 SWAP2 ADD SWAP1 PUSH3 0x177 JUMP JUMPDEST POP SWAP2 PUSH1 0x20 ADD SWAP2 SWAP1 PUSH1 0x1 ADD SWAP1 PUSH3 0x134 JUMP JUMPDEST POP PUSH3 0x173 SWAP3 SWAP2 POP PUSH3 0x202 JUMP JUMPDEST POP SWAP1 JUMP JUMPDEST DUP3 DUP1 SLOAD PUSH3 0x185 SWAP1 PUSH3 0x4E9 JUMP JUMPDEST SWAP1 PUSH1 0x0 MSTORE PUSH1 0x20 PUSH1 0x0 KECCAK256 SWAP1 PUSH1 0x1F ADD PUSH1 0x20 SWAP1 DIV DUP2 ADD SWAP3 DUP3 PUSH3 0x1A9 JUMPI PUSH1 0x0 DUP6 SSTORE PUSH3 0x1F4 JUMP JUMPDEST DUP3 PUSH1 0x1F LT PUSH3 0x1C4 JUMPI DUP1 MLOAD PUSH1 0xFF NOT AND DUP4 DUP1 ADD OR DUP6 SSTORE PUSH3 0x1F4 JUMP JUMPDEST DUP3 DUP1 ADD PUSH1 0x1 ADD DUP6 SSTORE DUP3 ISZERO PUSH3 0x1F4 JUMPI SWAP2 DUP3 ADD JUMPDEST DUP3 DUP2 GT ISZERO PUSH3 0x1F4 JUMPI DUP3 MLOAD DUP3 SSTORE SWAP2 PUSH1 0x20 ADD SWAP2 SWAP1 PUSH1 0x1 ADD SWAP1 PUSH3 0x1D7 JUMP JUMPDEST POP PUSH3 0x173 SWAP3 SWAP2 POP PUSH3 0x223 JUMP JUMPDEST DUP1 DUP3 GT ISZERO PUSH3 0x173 JUMPI PUSH1 0x0 PUSH3 0x219 DUP3 DUP3 PUSH3 0x23A JUMP JUMPDEST POP PUSH1 0x1 ADD PUSH3 0x202 JUMP JUMPDEST JUMPDEST DUP1 DUP3 GT ISZERO PUSH3 0x173 JUMPI PUSH1 0x0 DUP2 SSTORE PUSH1 0x1 ADD PUSH3 0x224 JUMP JUMPDEST POP DUP1 SLOAD PUSH3 0x248 SWAP1 PUSH3 0x4E9 JUMP JUMPDEST PUSH1 0x0 DUP3 SSTORE DUP1 PUSH1 0x1F LT PUSH3 0x259 JUMPI POP POP JUMP JUMPDEST PUSH1 0x1F ADD PUSH1 0x20 SWAP1 DIV SWAP1 PUSH1 0x0 MSTORE PUSH1 0x20 PUSH1 0x0 KECCAK256 SWAP1 DUP2 ADD SWAP1 PUSH3 0x279 SWAP2 SWAP1 PUSH3 0x223 JUMP JUMPDEST POP JUMP JUMPDEST PUSH1 0x0 DUP3 PUSH1 0x1F DUP4 ADD SLT PUSH3 0x28D JUMPI DUP1 DUP2 REVERT JUMPDEST DUP2 MLOAD PUSH1 0x20 PUSH3 0x2A6 PUSH3 0x2A0 DUP4 PUSH3 0x490 JUMP JUMPDEST PUSH3 0x45D JUMP JUMPDEST DUP1 DUP4 DUP3 MSTORE DUP3 DUP3 ADD SWAP2 POP DUP3 DUP7 ADD DUP8 DUP5 DUP7 PUSH1 0x5 SHL DUP10 ADD ADD GT ISZERO PUSH3 0x2C6 JUMPI DUP6 DUP7 REVERT JUMPDEST DUP6 JUMPDEST DUP6 DUP2 LT ISZERO PUSH3 0x2FB JUMPI DUP2 MLOAD PUSH1 0x1 PUSH1 0x1 PUSH1 0xA0 SHL SUB DUP2 AND DUP2 EQ PUSH3 0x2E8 JUMPI DUP8 DUP9 REVERT JUMPDEST DUP5 MSTORE SWAP3 DUP5 ADD SWAP3 SWAP1 DUP5 ADD SWAP1 PUSH1 0x1 ADD PUSH3 0x2C8 JUMP JUMPDEST POP SWAP1 SWAP8 SWAP7 POP POP POP POP POP POP POP JUMP JUMPDEST PUSH1 0x0 DUP1 PUSH1 0x40 DUP1 DUP5 DUP7 SUB SLT ISZERO PUSH3 0x31C JUMPI DUP3 DUP4 REVERT JUMPDEST DUP4 MLOAD PUSH1 0x1 PUSH1 0x1 PUSH1 0x40 SHL SUB DUP1 DUP3 GT ISZERO PUSH3 0x333 JUMPI DUP5 DUP6 REVERT JUMPDEST DUP2 DUP7 ADD SWAP2 POP DUP7 PUSH1 0x1F DUP4 ADD SLT PUSH3 0x347 JUMPI DUP5 DUP6 REVERT JUMPDEST DUP2 MLOAD PUSH1 0x20 PUSH3 0x35A PUSH3 0x2A0 DUP4 PUSH3 0x490 JUMP JUMPDEST DUP1 DUP4 DUP3 MSTORE DUP3 DUP3 ADD SWAP2 POP DUP3 DUP7 ADD DUP12 DUP5 DUP7 PUSH1 0x5 SHL DUP10 ADD ADD GT ISZERO PUSH3 0x37A JUMPI DUP10 DUP11 REVERT JUMPDEST DUP10 JUMPDEST DUP6 DUP2 LT ISZERO PUSH3 0x40A JUMPI DUP2 MLOAD DUP8 DUP2 GT ISZERO PUSH3 0x394 JUMPI DUP12 DUP13 REVERT JUMPDEST DUP9 ADD PUSH1 0x3F DUP2 ADD DUP15 SGT PUSH3 0x3A5 JUMPI DUP12 DUP13 REVERT JUMPDEST DUP6 DUP2 ADD MLOAD DUP9 DUP2 GT ISZERO PUSH3 0x3BC JUMPI PUSH3 0x3BC PUSH3 0x54E JUMP JUMPDEST PUSH3 0x3D0 PUSH1 0x1F DUP3 ADD PUSH1 0x1F NOT AND DUP9 ADD PUSH3 0x45D JUMP JUMPDEST DUP2 DUP2 MSTORE DUP16 DUP13 DUP4 DUP6 ADD ADD GT ISZERO PUSH3 0x3E4 JUMPI DUP14 DUP15 REVERT JUMPDEST PUSH3 0x3F5 DUP3 DUP10 DUP4 ADD DUP15 DUP7 ADD PUSH3 0x4B6 JUMP JUMPDEST DUP7 MSTORE POP POP SWAP3 DUP5 ADD SWAP3 SWAP1 DUP5 ADD SWAP1 PUSH1 0x1 ADD PUSH3 0x37C JUMP JUMPDEST POP POP SWAP2 DUP10 ADD MLOAD SWAP2 SWAP8 POP SWAP1 SWAP5 POP POP POP DUP1 DUP4 GT ISZERO PUSH3 0x425 JUMPI DUP4 DUP5 REVERT JUMPDEST POP POP PUSH3 0x435 DUP6 DUP3 DUP7 ADD PUSH3 0x27C JUMP JUMPDEST SWAP2 POP POP SWAP3 POP SWAP3 SWAP1 POP JUMP JUMPDEST PUSH1 0x0 DUP3 MLOAD PUSH3 0x453 DUP2 DUP5 PUSH1 0x20 DUP8 ADD PUSH3 0x4B6 JUMP JUMPDEST SWAP2 SWAP1 SWAP2 ADD SWAP3 SWAP2 POP POP JUMP JUMPDEST PUSH1 0x40 MLOAD PUSH1 0x1F DUP3 ADD PUSH1 0x1F NOT AND DUP2 ADD PUSH1 0x1 PUSH1 0x1 PUSH1 0x40 SHL SUB DUP2 GT DUP3 DUP3 LT OR ISZERO PUSH3 0x488 JUMPI PUSH3 0x488 PUSH3 0x54E JUMP JUMPDEST PUSH1 0x40 MSTORE SWAP2 SWAP1 POP JUMP JUMPDEST PUSH1 0x0 PUSH1 0x1 PUSH1 0x1 PUSH1 0x40 SHL SUB DUP3 GT ISZERO PUSH3 0x4AC JUMPI PUSH3 0x4AC PUSH3 0x54E JUMP JUMPDEST POP PUSH1 0x5 SHL PUSH1 0x20 ADD SWAP1 JUMP JUMPDEST PUSH1 0x0 JUMPDEST DUP4 DUP2 LT ISZERO PUSH3 0x4D3 JUMPI DUP2 DUP2 ADD MLOAD DUP4 DUP3 ADD MSTORE PUSH1 0x20 ADD PUSH3 0x4B9 JUMP JUMPDEST DUP4 DUP2 GT ISZERO PUSH3 0x4E3 JUMPI PUSH1 0x0 DUP5 DUP5 ADD MSTORE JUMPDEST POP POP POP POP JUMP JUMPDEST PUSH1 0x1 DUP2 DUP2 SHR SWAP1 DUP3 AND DUP1 PUSH3 0x4FE JUMPI PUSH1 0x7F DUP3 AND SWAP2 POP JUMPDEST PUSH1 0x20 DUP3 LT DUP2 EQ ISZERO PUSH3 0x520 JUMPI PUSH4 0x4E487B71 PUSH1 0xE0 SHL PUSH1 0x0 MSTORE PUSH1 0x22 PUSH1 0x4 MSTORE PUSH1 0x24 PUSH1 0x0 REVERT JUMPDEST POP SWAP2 SWAP1 POP JUMP JUMPDEST PUSH1 0x0 PUSH1 0x0 NOT DUP3 EQ ISZERO PUSH3 0x547 JUMPI PUSH4 0x4E487B71 PUSH1 0xE0 SHL DUP2 MSTORE PUSH1 0x11 PUSH1 0x4 MSTORE PUSH1 0x24 DUP2 REVERT JUMPDEST POP PUSH1 0x1 ADD SWAP1 JUMP JUMPDEST PUSH4 0x4E487B71 PUSH1 0xE0 SHL PUSH1 0x0 MSTORE PUSH1 0x41 PUSH1 0x4 MSTORE PUSH1 0x24 PUSH1 0x0 REVERT JUMPDEST PUSH2 0xC10 DUP1 PUSH3 0x574 PUSH1 0x0 CODECOPY PUSH1 0x0 RETURN INVALID PUSH1 0x80 PUSH1 0x40 MSTORE CALLVALUE DUP1 ISZERO PUSH2 0x10 JUMPI PUSH1 0x0 DUP1 REVERT JUMPDEST POP PUSH1 0x4 CALLDATASIZE LT PUSH2 0x88 JUMPI PUSH1 0x0 CALLDATALOAD PUSH1 0xE0 SHR DUP1 PUSH4 0xC42A8CFF GT PUSH2 0x5B JUMPI DUP1 PUSH4 0xC42A8CFF EQ PUSH2 0x105 JUMPI DUP1 PUSH4 0xEACA3E61 EQ PUSH2 0x11F JUMPI DUP1 PUSH4 0xF4A96D22 EQ PUSH2 0x16D JUMPI DUP1 PUSH4 0xFD9B6136 EQ PUSH2 0x175 JUMPI PUSH1 0x0 DUP1 REVERT JUMPDEST DUP1 PUSH4 0x199ABCE EQ PUSH2 0x8D JUMPI DUP1 PUSH4 0xC0B6691 EQ PUSH2 0xA2 JUMPI DUP1 PUSH4 0x7224A401 EQ PUSH2 0xC0 JUMPI DUP1 PUSH4 0xB8F12DAF EQ PUSH2 0xD3 JUMPI JUMPDEST PUSH1 0x0 DUP1 REVERT JUMPDEST PUSH2 0xA0 PUSH2 0x9B CALLDATASIZE PUSH1 0x4 PUSH2 0x93B JUMP JUMPDEST PUSH2 0x188 JUMP JUMPDEST STOP JUMPDEST PUSH2 0xAA PUSH2 0x306 JUMP JUMPDEST PUSH1 0x40 MLOAD PUSH2 0xB7 SWAP2 SWAP1 PUSH2 0xACE JUMP JUMPDEST PUSH1 0x40 MLOAD DUP1 SWAP2 SUB SWAP1 RETURN JUMPDEST PUSH2 0xA0 PUSH2 0xCE CALLDATASIZE PUSH1 0x4 PUSH2 0x9EB JUMP JUMPDEST PUSH2 0x3DF JUMP JUMPDEST PUSH2 0xE6 PUSH2 0xE1 CALLDATASIZE PUSH1 0x4 PUSH2 0x996 JUMP JUMPDEST PUSH2 0x620 JUMP JUMPDEST PUSH1 0x40 DUP1 MLOAD SWAP3 ISZERO ISZERO DUP4 MSTORE PUSH1 0x1 PUSH1 0x1 PUSH1 0xA0 SHL SUB SWAP1 SWAP2 AND PUSH1 0x20 DUP4 ADD MSTORE ADD PUSH2 0xB7 JUMP JUMPDEST PUSH2 0x10D PUSH1 0xA DUP2 JUMP JUMPDEST PUSH1 0x40 MLOAD PUSH1 0xFF SWAP1 SWAP2 AND DUP2 MSTORE PUSH1 0x20 ADD PUSH2 0xB7 JUMP JUMPDEST PUSH2 0x15D PUSH2 0x12D CALLDATASIZE PUSH1 0x4 PUSH2 0x93B JUMP JUMPDEST DUP2 MLOAD PUSH1 0x20 DUP2 DUP5 ADD DUP2 ADD DUP1 MLOAD PUSH1 0x1 DUP3 MSTORE SWAP3 DUP3 ADD SWAP5 DUP3 ADD SWAP5 SWAP1 SWAP5 KECCAK256 SWAP2 SWAP1 SWAP4 MSTORE SWAP1 SWAP2 MSTORE PUSH1 0x0 SWAP1 DUP2 MSTORE PUSH1 0x40 SWAP1 KECCAK256 SLOAD PUSH1 0xFF AND DUP2 JUMP JUMPDEST PUSH1 0x40 MLOAD SWAP1 ISZERO ISZERO DUP2 MSTORE PUSH1 0x20 ADD PUSH2 0xB7 JUMP JUMPDEST PUSH2 0x10D PUSH1 0x8 DUP2 JUMP JUMPDEST PUSH2 0xA0 PUSH2 0x183 CALLDATASIZE PUSH1 0x4 PUSH2 0x9EB JUMP JUMPDEST PUSH2 0x66D JUMP JUMPDEST PUSH1 0x1 DUP3 PUSH1 0x40 MLOAD PUSH2 0x198 SWAP2 SWAP1 PUSH2 0xA73 JUMP JUMPDEST SWAP1 DUP2 MSTORE PUSH1 0x40 DUP1 MLOAD PUSH1 0x20 SWAP3 DUP2 SWAP1 SUB DUP4 ADD SWAP1 KECCAK256 CALLER PUSH1 0x0 SWAP1 DUP2 MSTORE SWAP3 MSTORE SWAP1 KECCAK256 SLOAD PUSH1 0xFF AND PUSH2 0x201 JUMPI PUSH1 0x40 MLOAD PUSH3 0x461BCD PUSH1 0xE5 SHL DUP2 MSTORE PUSH1 0x20 PUSH1 0x4 DUP3 ADD MSTORE PUSH1 0x16 PUSH1 0x24 DUP3 ADD MSTORE PUSH22 0x4F7065726174696F6E206E6F7420616C6C6F77656421 PUSH1 0x50 SHL PUSH1 0x44 DUP3 ADD MSTORE PUSH1 0x64 ADD JUMPDEST PUSH1 0x40 MLOAD DUP1 SWAP2 SUB SWAP1 REVERT JUMPDEST PUSH1 0x1 DUP3 PUSH1 0x40 MLOAD PUSH2 0x211 SWAP2 SWAP1 PUSH2 0xA73 JUMP JUMPDEST SWAP1 DUP2 MSTORE PUSH1 0x40 DUP1 MLOAD PUSH1 0x20 SWAP3 DUP2 SWAP1 SUB DUP4 ADD SWAP1 KECCAK256 PUSH1 0x1 PUSH1 0x1 PUSH1 0xA0 SHL SUB DUP5 AND PUSH1 0x0 SWAP1 DUP2 MSTORE SWAP3 MSTORE SWAP1 KECCAK256 SLOAD PUSH1 0xFF AND ISZERO PUSH2 0x286 JUMPI PUSH1 0x40 MLOAD PUSH3 0x461BCD PUSH1 0xE5 SHL DUP2 MSTORE PUSH1 0x20 PUSH1 0x4 DUP3 ADD MSTORE PUSH1 0x1C PUSH1 0x24 DUP3 ADD MSTORE PUSH32 0x4164647265737320616C72656164792077686974656C69737465642100000000 PUSH1 0x44 DUP3 ADD MSTORE PUSH1 0x64 ADD PUSH2 0x1F8 JUMP JUMPDEST PUSH1 0x1 DUP1 DUP4 PUSH1 0x40 MLOAD PUSH2 0x297 SWAP2 SWAP1 PUSH2 0xA73 JUMP JUMPDEST SWAP1 DUP2 MSTORE PUSH1 0x40 DUP1 MLOAD PUSH1 0x20 SWAP3 DUP2 SWAP1 SUB DUP4 ADD DUP2 KECCAK256 PUSH1 0x1 PUSH1 0x1 PUSH1 0xA0 SHL SUB DUP7 AND PUSH1 0x0 SWAP1 DUP2 MSTORE SWAP4 MSTORE SWAP2 KECCAK256 DUP1 SLOAD PUSH1 0xFF NOT AND SWAP3 ISZERO ISZERO SWAP3 SWAP1 SWAP3 OR SWAP1 SWAP2 SSTORE PUSH32 0x9708C549F753B882994A07FB0326B5882EB86E39E5AE87C42A49377246197869 SWAP1 PUSH2 0x2FA SWAP1 DUP5 SWAP1 DUP5 SWAP1 PUSH2 0xB2F JUMP JUMPDEST PUSH1 0x40 MLOAD DUP1 SWAP2 SUB SWAP1 LOG1 POP POP JUMP JUMPDEST PUSH1 0x60 PUSH1 0x2 DUP1 SLOAD DUP1 PUSH1 0x20 MUL PUSH1 0x20 ADD PUSH1 0x40 MLOAD SWAP1 DUP2 ADD PUSH1 0x40 MSTORE DUP1 SWAP3 SWAP2 SWAP1 DUP2 DUP2 MSTORE PUSH1 0x20 ADD PUSH1 0x0 SWAP1 JUMPDEST DUP3 DUP3 LT ISZERO PUSH2 0x3D6 JUMPI DUP4 DUP3 SWAP1 PUSH1 0x0 MSTORE PUSH1 0x20 PUSH1 0x0 KECCAK256 ADD DUP1 SLOAD PUSH2 0x349 SWAP1 PUSH2 0xB89 JUMP JUMPDEST DUP1 PUSH1 0x1F ADD PUSH1 0x20 DUP1 SWAP2 DIV MUL PUSH1 0x20 ADD PUSH1 0x40 MLOAD SWAP1 DUP2 ADD PUSH1 0x40 MSTORE DUP1 SWAP3 SWAP2 SWAP1 DUP2 DUP2 MSTORE PUSH1 0x20 ADD DUP3 DUP1 SLOAD PUSH2 0x375 SWAP1 PUSH2 0xB89 JUMP JUMPDEST DUP1 ISZERO PUSH2 0x3C2 JUMPI DUP1 PUSH1 0x1F LT PUSH2 0x397 JUMPI PUSH2 0x100 DUP1 DUP4 SLOAD DIV MUL DUP4 MSTORE SWAP2 PUSH1 0x20 ADD SWAP2 PUSH2 0x3C2 JUMP JUMPDEST DUP3 ADD SWAP2 SWAP1 PUSH1 0x0 MSTORE PUSH1 0x20 PUSH1 0x0 KECCAK256 SWAP1 JUMPDEST DUP2 SLOAD DUP2 MSTORE SWAP1 PUSH1 0x1 ADD SWAP1 PUSH1 0x20 ADD DUP1 DUP4 GT PUSH2 0x3A5 JUMPI DUP3 SWAP1 SUB PUSH1 0x1F AND DUP3 ADD SWAP2 JUMPDEST POP POP POP POP POP DUP2 MSTORE PUSH1 0x20 ADD SWAP1 PUSH1 0x1 ADD SWAP1 PUSH2 0x32A JUMP JUMPDEST POP POP POP POP SWAP1 POP SWAP1 JUMP JUMPDEST DUP2 PUSH1 0x8 PUSH1 0xFF DUP3 AND LT PUSH2 0x42B JUMPI PUSH1 0x40 MLOAD PUSH3 0x461BCD PUSH1 0xE5 SHL DUP2 MSTORE PUSH1 0x20 PUSH1 0x4 DUP3 ADD MSTORE PUSH1 0x15 PUSH1 0x24 DUP3 ADD MSTORE PUSH21 0x536C6F74206973206F7574206F662072616E676521 PUSH1 0x58 SHL PUSH1 0x44 DUP3 ADD MSTORE PUSH1 0x64 ADD PUSH2 0x1F8 JUMP JUMPDEST DUP2 PUSH1 0xA PUSH1 0xFF DUP3 AND LT PUSH2 0x477 JUMPI PUSH1 0x40 MLOAD PUSH3 0x461BCD PUSH1 0xE5 SHL DUP2 MSTORE PUSH1 0x20 PUSH1 0x4 DUP3 ADD MSTORE PUSH1 0x15 PUSH1 0x24 DUP3 ADD MSTORE PUSH21 0x526F6F6D206973206F7574206F662072616E676521 PUSH1 0x58 SHL PUSH1 0x44 DUP3 ADD MSTORE PUSH1 0x64 ADD PUSH2 0x1F8 JUMP JUMPDEST PUSH1 0x1 DUP6 PUSH1 0x40 MLOAD PUSH2 0x487 SWAP2 SWAP1 PUSH2 0xA73 JUMP JUMPDEST SWAP1 DUP2 MSTORE PUSH1 0x40 DUP1 MLOAD PUSH1 0x20 SWAP3 DUP2 SWAP1 SUB DUP4 ADD SWAP1 KECCAK256 CALLER PUSH1 0x0 SWAP1 DUP2 MSTORE SWAP3 MSTORE SWAP1 KECCAK256 SLOAD PUSH1 0xFF AND PUSH2 0x4F2 JUMPI PUSH1 0x40 MLOAD PUSH3 0x461BCD PUSH1 0xE5 SHL DUP2 MSTORE PUSH1 0x20 PUSH1 0x4 DUP3 ADD MSTORE PUSH1 0x1C PUSH1 0x24 DUP3 ADD MSTORE PUSH32 0x4E6F7420616C6C6F77656420746F207265736572766520726F6F6D2100000000 PUSH1 0x44 DUP3 ADD MSTORE PUSH1 0x64 ADD PUSH2 0x1F8 JUMP JUMPDEST PUSH1 0x1 PUSH1 0x0 DUP7 PUSH1 0x40 MLOAD PUSH2 0x504 SWAP2 SWAP1 PUSH2 0xA73 JUMP JUMPDEST SWAP1 DUP2 MSTORE PUSH1 0x20 ADD PUSH1 0x40 MLOAD DUP1 SWAP2 SUB SWAP1 KECCAK256 PUSH1 0x0 DUP7 PUSH1 0xFF AND PUSH1 0xFF AND DUP2 MSTORE PUSH1 0x20 ADD SWAP1 DUP2 MSTORE PUSH1 0x20 ADD PUSH1 0x0 KECCAK256 DUP5 PUSH1 0xFF AND PUSH1 0xA DUP2 LT PUSH2 0x54B JUMPI PUSH4 0x4E487B71 PUSH1 0xE0 SHL PUSH1 0x0 MSTORE PUSH1 0x32 PUSH1 0x4 MSTORE PUSH1 0x24 PUSH1 0x0 REVERT JUMPDEST ADD DUP1 SLOAD PUSH1 0xFF NOT AND SWAP2 ISZERO ISZERO SWAP2 SWAP1 SWAP2 OR SWAP1 SSTORE PUSH1 0x40 MLOAD CALLER SWAP1 PUSH1 0x0 SWAP1 PUSH2 0x56E SWAP1 DUP9 SWAP1 PUSH2 0xA73 JUMP JUMPDEST SWAP1 DUP2 MSTORE PUSH1 0x20 ADD PUSH1 0x40 MLOAD DUP1 SWAP2 SUB SWAP1 KECCAK256 PUSH1 0x0 DUP7 PUSH1 0xFF AND PUSH1 0xFF AND DUP2 MSTORE PUSH1 0x20 ADD SWAP1 DUP2 MSTORE PUSH1 0x20 ADD PUSH1 0x0 KECCAK256 DUP5 PUSH1 0xFF AND PUSH1 0xA DUP2 LT PUSH2 0x5B5 JUMPI PUSH4 0x4E487B71 PUSH1 0xE0 SHL PUSH1 0x0 MSTORE PUSH1 0x32 PUSH1 0x4 MSTORE PUSH1 0x24 PUSH1 0x0 REVERT JUMPDEST ADD DUP1 SLOAD PUSH1 0x1 PUSH1 0x1 PUSH1 0xA0 SHL SUB SWAP3 SWAP1 SWAP3 AND PUSH2 0x100 MUL PUSH2 0x100 PUSH1 0x1 PUSH1 0xA8 SHL SUB NOT SWAP1 SWAP3 AND SWAP2 SWAP1 SWAP2 OR SWAP1 SSTORE PUSH1 0x40 MLOAD PUSH32 0x4E1891727EE35A3CEB1BA877124C34BA45EE786F217D7D40D9DAD77FD6838131 SWAP1 PUSH2 0x611 SWAP1 CALLER SWAP1 DUP9 SWAP1 DUP9 SWAP1 DUP9 SWAP1 PUSH2 0xA8F JUMP JUMPDEST PUSH1 0x40 MLOAD DUP1 SWAP2 SUB SWAP1 LOG1 POP POP POP POP POP JUMP JUMPDEST DUP3 MLOAD PUSH1 0x20 DUP2 DUP6 ADD DUP2 ADD DUP1 MLOAD PUSH1 0x0 DUP1 DUP4 MSTORE SWAP4 DUP4 ADD DUP4 DUP9 ADD KECCAK256 SWAP2 MSTORE SWAP1 MSTORE DUP3 DUP2 MSTORE PUSH1 0x40 SWAP1 KECCAK256 DUP2 PUSH1 0xA DUP2 LT PUSH2 0x650 JUMPI PUSH1 0x0 DUP1 REVERT JUMPDEST ADD SLOAD PUSH1 0xFF DUP2 AND SWAP4 POP PUSH2 0x100 SWAP1 DIV PUSH1 0x1 PUSH1 0x1 PUSH1 0xA0 SHL SUB AND SWAP2 POP DUP4 SWAP1 POP JUMP JUMPDEST DUP2 PUSH1 0x8 PUSH1 0xFF DUP3 AND LT PUSH2 0x6B9 JUMPI PUSH1 0x40 MLOAD PUSH3 0x461BCD PUSH1 0xE5 SHL DUP2 MSTORE PUSH1 0x20 PUSH1 0x4 DUP3 ADD MSTORE PUSH1 0x15 PUSH1 0x24 DUP3 ADD MSTORE PUSH21 0x536C6F74206973206F7574206F662072616E676521 PUSH1 0x58 SHL PUSH1 0x44 DUP3 ADD MSTORE PUSH1 0x64 ADD PUSH2 0x1F8 JUMP JUMPDEST DUP2 PUSH1 0xA PUSH1 0xFF DUP3 AND LT PUSH2 0x705 JUMPI PUSH1 0x40 MLOAD PUSH3 0x461BCD PUSH1 0xE5 SHL DUP2 MSTORE PUSH1 0x20 PUSH1 0x4 DUP3 ADD MSTORE PUSH1 0x15 PUSH1 0x24 DUP3 ADD MSTORE PUSH21 0x526F6F6D206973206F7574206F662072616E676521 PUSH1 0x58 SHL PUSH1 0x44 DUP3 ADD MSTORE PUSH1 0x64 ADD PUSH2 0x1F8 JUMP JUMPDEST PUSH1 0x1 DUP6 PUSH1 0x40 MLOAD PUSH2 0x715 SWAP2 SWAP1 PUSH2 0xA73 JUMP JUMPDEST SWAP1 DUP2 MSTORE PUSH1 0x40 DUP1 MLOAD PUSH1 0x20 SWAP3 DUP2 SWAP1 SUB DUP4 ADD SWAP1 KECCAK256 CALLER PUSH1 0x0 SWAP1 DUP2 MSTORE SWAP3 MSTORE SWAP1 KECCAK256 SLOAD PUSH1 0xFF AND PUSH2 0x780 JUMPI PUSH1 0x40 MLOAD PUSH3 0x461BCD PUSH1 0xE5 SHL DUP2 MSTORE PUSH1 0x20 PUSH1 0x4 DUP3 ADD MSTORE PUSH1 0x1B PUSH1 0x24 DUP3 ADD MSTORE PUSH32 0x4E6F7420616C6C6F77656420746F2063616E63656C20726F6F6D210000000000 PUSH1 0x44 DUP3 ADD MSTORE PUSH1 0x64 ADD PUSH2 0x1F8 JUMP JUMPDEST PUSH1 0x0 DUP1 DUP7 PUSH1 0x40 MLOAD PUSH2 0x791 SWAP2 SWAP1 PUSH2 0xA73 JUMP JUMPDEST SWAP1 DUP2 MSTORE PUSH1 0x20 ADD PUSH1 0x40 MLOAD DUP1 SWAP2 SUB SWAP1 KECCAK256 PUSH1 0x0 DUP7 PUSH1 0xFF AND PUSH1 0xFF AND DUP2 MSTORE PUSH1 0x20 ADD SWAP1 DUP2 MSTORE PUSH1 0x20 ADD PUSH1 0x0 KECCAK256 DUP5 PUSH1 0xFF AND PUSH1 0xA DUP2 LT PUSH2 0x7D8 JUMPI PUSH4 0x4E487B71 PUSH1 0xE0 SHL PUSH1 0x0 MSTORE PUSH1 0x32 PUSH1 0x4 MSTORE PUSH1 0x24 PUSH1 0x0 REVERT JUMPDEST ADD DUP1 SLOAD PUSH1 0xFF NOT AND SWAP2 ISZERO ISZERO SWAP2 SWAP1 SWAP2 OR SWAP1 SSTORE PUSH1 0x40 MLOAD PUSH1 0x0 SWAP1 DUP2 SWAP1 PUSH2 0x7FB SWAP1 DUP9 SWAP1 PUSH2 0xA73 JUMP JUMPDEST SWAP1 DUP2 MSTORE PUSH1 0x20 ADD PUSH1 0x40 MLOAD DUP1 SWAP2 SUB SWAP1 KECCAK256 PUSH1 0x0 DUP7 PUSH1 0xFF AND PUSH1 0xFF AND DUP2 MSTORE PUSH1 0x20 ADD SWAP1 DUP2 MSTORE PUSH1 0x20 ADD PUSH1 0x0 KECCAK256 DUP5 PUSH1 0xFF AND PUSH1 0xA DUP2 LT PUSH2 0x842 JUMPI PUSH4 0x4E487B71 PUSH1 0xE0 SHL PUSH1 0x0 MSTORE PUSH1 0x32 PUSH1 0x4 MSTORE PUSH1 0x24 PUSH1 0x0 REVERT JUMPDEST ADD DUP1 SLOAD PUSH1 0x1 PUSH1 0x1 PUSH1 0xA0 SHL SUB SWAP3 SWAP1 SWAP3 AND PUSH2 0x100 MUL PUSH2 0x100 PUSH1 0x1 PUSH1 0xA8 SHL SUB NOT SWAP1 SWAP3 AND SWAP2 SWAP1 SWAP2 OR SWAP1 SSTORE PUSH1 0x40 MLOAD PUSH32 0x57958B0FCD4D01B2A77F5BAFCA296CAC447F05A395AC45F724918534A6BE6786 SWAP1 PUSH2 0x611 SWAP1 CALLER SWAP1 DUP9 SWAP1 DUP9 SWAP1 DUP9 SWAP1 PUSH2 0xA8F JUMP JUMPDEST PUSH1 0x0 DUP3 PUSH1 0x1F DUP4 ADD SLT PUSH2 0x8AE JUMPI DUP1 DUP2 REVERT JUMPDEST DUP2 CALLDATALOAD PUSH8 0xFFFFFFFFFFFFFFFF DUP1 DUP3 GT ISZERO PUSH2 0x8C9 JUMPI PUSH2 0x8C9 PUSH2 0xBC4 JUMP JUMPDEST PUSH1 0x40 MLOAD PUSH1 0x1F DUP4 ADD PUSH1 0x1F NOT SWAP1 DUP2 AND PUSH1 0x3F ADD AND DUP2 ADD SWAP1 DUP3 DUP3 GT DUP2 DUP4 LT OR ISZERO PUSH2 0x8F1 JUMPI PUSH2 0x8F1 PUSH2 0xBC4 JUMP JUMPDEST DUP2 PUSH1 0x40 MSTORE DUP4 DUP2 MSTORE DUP7 PUSH1 0x20 DUP6 DUP9 ADD ADD GT ISZERO PUSH2 0x909 JUMPI DUP5 DUP6 REVERT JUMPDEST DUP4 PUSH1 0x20 DUP8 ADD PUSH1 0x20 DUP4 ADD CALLDATACOPY SWAP3 DUP4 ADD PUSH1 0x20 ADD SWAP4 SWAP1 SWAP4 MSTORE POP SWAP4 SWAP3 POP POP POP JUMP JUMPDEST DUP1 CALLDATALOAD PUSH1 0xFF DUP2 AND DUP2 EQ PUSH2 0x936 JUMPI PUSH1 0x0 DUP1 REVERT JUMPDEST SWAP2 SWAP1 POP JUMP JUMPDEST PUSH1 0x0 DUP1 PUSH1 0x40 DUP4 DUP6 SUB SLT ISZERO PUSH2 0x94D JUMPI DUP2 DUP3 REVERT JUMPDEST DUP3 CALLDATALOAD PUSH8 0xFFFFFFFFFFFFFFFF DUP2 GT ISZERO PUSH2 0x963 JUMPI DUP3 DUP4 REVERT JUMPDEST PUSH2 0x96F DUP6 DUP3 DUP7 ADD PUSH2 0x89E JUMP JUMPDEST SWAP3 POP POP PUSH1 0x20 DUP4 ADD CALLDATALOAD PUSH1 0x1 PUSH1 0x1 PUSH1 0xA0 SHL SUB DUP2 AND DUP2 EQ PUSH2 0x98B JUMPI DUP2 DUP3 REVERT JUMPDEST DUP1 SWAP2 POP POP SWAP3 POP SWAP3 SWAP1 POP JUMP JUMPDEST PUSH1 0x0 DUP1 PUSH1 0x0 PUSH1 0x60 DUP5 DUP7 SUB SLT ISZERO PUSH2 0x9AA JUMPI DUP1 DUP2 REVERT JUMPDEST DUP4 CALLDATALOAD PUSH8 0xFFFFFFFFFFFFFFFF DUP2 GT ISZERO PUSH2 0x9C0 JUMPI DUP2 DUP3 REVERT JUMPDEST PUSH2 0x9CC DUP7 DUP3 DUP8 ADD PUSH2 0x89E JUMP JUMPDEST SWAP4 POP POP PUSH2 0x9DB PUSH1 0x20 DUP6 ADD PUSH2 0x925 JUMP JUMPDEST SWAP2 POP PUSH1 0x40 DUP5 ADD CALLDATALOAD SWAP1 POP SWAP3 POP SWAP3 POP SWAP3 JUMP JUMPDEST PUSH1 0x0 DUP1 PUSH1 0x0 PUSH1 0x60 DUP5 DUP7 SUB SLT ISZERO PUSH2 0x9FF JUMPI DUP3 DUP4 REVERT JUMPDEST DUP4 CALLDATALOAD PUSH8 0xFFFFFFFFFFFFFFFF DUP2 GT ISZERO PUSH2 0xA15 JUMPI DUP4 DUP5 REVERT JUMPDEST PUSH2 0xA21 DUP7 DUP3 DUP8 ADD PUSH2 0x89E JUMP JUMPDEST SWAP4 POP POP PUSH2 0xA30 PUSH1 0x20 DUP6 ADD PUSH2 0x925 JUMP JUMPDEST SWAP2 POP PUSH2 0xA3E PUSH1 0x40 DUP6 ADD PUSH2 0x925 JUMP JUMPDEST SWAP1 POP SWAP3 POP SWAP3 POP SWAP3 JUMP JUMPDEST PUSH1 0x0 DUP2 MLOAD DUP1 DUP5 MSTORE PUSH2 0xA5F DUP2 PUSH1 0x20 DUP7 ADD PUSH1 0x20 DUP7 ADD PUSH2 0xB59 JUMP JUMPDEST PUSH1 0x1F ADD PUSH1 0x1F NOT AND SWAP3 SWAP1 SWAP3 ADD PUSH1 0x20 ADD SWAP3 SWAP2 POP POP JUMP JUMPDEST PUSH1 0x0 DUP3 MLOAD PUSH2 0xA85 DUP2 DUP5 PUSH1 0x20 DUP8 ADD PUSH2 0xB59 JUMP JUMPDEST SWAP2 SWAP1 SWAP2 ADD SWAP3 SWAP2 POP POP JUMP JUMPDEST PUSH1 0x1 PUSH1 0x1 PUSH1 0xA0 SHL SUB DUP6 AND DUP2 MSTORE PUSH1 0x80 PUSH1 0x20 DUP3 ADD DUP2 SWAP1 MSTORE PUSH1 0x0 SWAP1 PUSH2 0xAB3 SWAP1 DUP4 ADD DUP7 PUSH2 0xA47 JUMP JUMPDEST PUSH1 0xFF SWAP5 DUP6 AND PUSH1 0x40 DUP5 ADD MSTORE SWAP3 SWAP1 SWAP4 AND PUSH1 0x60 SWAP1 SWAP2 ADD MSTORE SWAP4 SWAP3 POP POP POP JUMP JUMPDEST PUSH1 0x0 PUSH1 0x20 DUP1 DUP4 ADD DUP2 DUP5 MSTORE DUP1 DUP6 MLOAD DUP1 DUP4 MSTORE PUSH1 0x40 DUP7 ADD SWAP2 POP PUSH1 0x40 DUP2 PUSH1 0x5 SHL DUP8 ADD ADD SWAP3 POP DUP4 DUP8 ADD DUP6 JUMPDEST DUP3 DUP2 LT ISZERO PUSH2 0xB22 JUMPI PUSH1 0x3F NOT DUP9 DUP7 SUB ADD DUP5 MSTORE PUSH2 0xB10 DUP6 DUP4 MLOAD PUSH2 0xA47 JUMP JUMPDEST SWAP5 POP SWAP3 DUP6 ADD SWAP3 SWAP1 DUP6 ADD SWAP1 PUSH1 0x1 ADD PUSH2 0xAF4 JUMP JUMPDEST POP SWAP3 SWAP8 SWAP7 POP POP POP POP POP POP POP JUMP JUMPDEST PUSH1 0x40 DUP2 MSTORE PUSH1 0x0 PUSH2 0xB42 PUSH1 0x40 DUP4 ADD DUP6 PUSH2 0xA47 JUMP JUMPDEST SWAP1 POP PUSH1 0x1 DUP1 PUSH1 0xA0 SHL SUB DUP4 AND PUSH1 0x20 DUP4 ADD MSTORE SWAP4 SWAP3 POP POP POP JUMP JUMPDEST PUSH1 0x0 JUMPDEST DUP4 DUP2 LT ISZERO PUSH2 0xB74 JUMPI DUP2 DUP2 ADD MLOAD DUP4 DUP3 ADD MSTORE PUSH1 0x20 ADD PUSH2 0xB5C JUMP JUMPDEST DUP4 DUP2 GT ISZERO PUSH2 0xB83 JUMPI PUSH1 0x0 DUP5 DUP5 ADD MSTORE JUMPDEST POP POP POP POP JUMP JUMPDEST PUSH1 0x1 DUP2 DUP2 SHR SWAP1 DUP3 AND DUP1 PUSH2 0xB9D JUMPI PUSH1 0x7F DUP3 AND SWAP2 POP JUMPDEST PUSH1 0x20 DUP3 LT DUP2 EQ ISZERO PUSH2 0xBBE JUMPI PUSH4 0x4E487B71 PUSH1 0xE0 SHL PUSH1 0x0 MSTORE PUSH1 0x22 PUSH1 0x4 MSTORE PUSH1 0x24 PUSH1 0x0 REVERT JUMPDEST POP SWAP2 SWAP1 POP JUMP JUMPDEST PUSH4 0x4E487B71 PUSH1 0xE0 SHL PUSH1 0x0 MSTORE PUSH1 0x41 PUSH1 0x4 MSTORE PUSH1 0x24 PUSH1 0x0 REVERT INVALID LOG2 PUSH5 0x6970667358 0x22 SLT KECCAK256 JUMP 0xDF 0x5D 0xB1 DUP7 SWAP16 DUP16 PUSH15 0xEC6342D625DFAC33BEDB0FB8D5DBC6 LT 0x28 SWAP14 PUSH24 0xFE502864F464736F6C634300080400330000000000000000 "
        },
        "gasEstimates": {
          "creation": {
            "codeDepositCost": "617600",
            "executionCost": "infinite",
            "totalCost": "infinite"
          },
          "external": {
            "MAX_ROOM()": "204",
            "MAX_SLOT()": "248",
            "addWhitelist(string,address)": "infinite",
            "cancelRoomSpace(string,uint8,uint8)": "infinite",
            "getCompanies()": "infinite",
            "reserveRoomSpace(string,uint8,uint8)": "infinite",
            "roomlist(string,uint8,uint256)": "infinite",
            "whitelist(string,address)": "infinite"
          }
        },
        "methodIdentifiers": {
          "MAX_ROOM()": "c42a8cff",
          "MAX_SLOT()": "f4a96d22",
          "addWhitelist(string,address)": "0199abce",
          "cancelRoomSpace(string,uint8,uint8)": "fd9b6136",
          "getCompanies()": "0c0b6691",
          "reserveRoomSpace(string,uint8,uint8)": "7224a401",
          "roomlist(string,uint8,uint256)": "b8f12daf",
          "whitelist(string,address)": "eaca3e61"
        }
      },
      "storageLayout": {
        "storage": [
          {
            "astId": 21,
            "contract": "contracts/RoomBooking.sol:RoomBooking",
            "label": "roomlist",
            "offset": 0,
            "slot": "0",
            "type": "t_mapping(t_string_memory_ptr,t_mapping(t_uint8,t_array(t_struct(Room)6_storage)10_storage))"
          },
          {
            "astId": 27,
            "contract": "contracts/RoomBooking.sol:RoomBooking",
            "label": "whitelist",
            "offset": 0,
            "slot": "1",
            "type": "t_mapping(t_string_memory_ptr,t_mapping(t_address,t_bool))"
          },
          {
            "astId": 30,
            "contract": "contracts/RoomBooking.sol:RoomBooking",
            "label": "companies",
            "offset": 0,
            "slot": "2",
            "type": "t_array(t_string_storage)dyn_storage"
          }
        ],
        "types": {
          "t_address": {
            "encoding": "inplace",
            "label": "address",
            "numberOfBytes": "20"
          },
          "t_array(t_string_storage)dyn_storage": {
            "base": "t_string_storage",
            "encoding": "dynamic_array",
            "label": "string[]",
            "numberOfBytes": "32"
          },
          "t_array(t_struct(Room)6_storage)10_storage": {
            "base": "t_struct(Room)6_storage",
            "encoding": "inplace",
            "label": "struct RoomBooking.Room[10]",
            "numberOfBytes": "320"
          },
          "t_bool": {
            "encoding": "inplace",
            "label": "bool",
            "numberOfBytes": "1"
          },
          "t_mapping(t_address,t_bool)": {
            "encoding": "mapping",
            "key": "t_address",
            "label": "mapping(address => bool)",
            "numberOfBytes": "32",
            "value": "t_bool"
          },
          "t_mapping(t_string_memory_ptr,t_mapping(t_address,t_bool))": {
            "encoding": "mapping",
            "key": "t_string_memory_ptr",
            "label": "mapping(string => mapping(address => bool))",
            "numberOfBytes": "32",
            "value": "t_mapping(t_address,t_bool)"
          },
          "t_mapping(t_string_memory_ptr,t_mapping(t_uint8,t_array(t_struct(Room)6_storage)10_storage))": {
            "encoding": "mapping",
            "key": "t_string_memory_ptr",
            "label": "mapping(string => mapping(uint8 => struct RoomBooking.Room[10]))",
            "numberOfBytes": "32",
            "value": "t_mapping(t_uint8,t_array(t_struct(Room)6_storage)10_storage)"
          },
          "t_mapping(t_uint8,t_array(t_struct(Room)6_storage)10_storage)": {
            "encoding": "mapping",
            "key": "t_uint8",
            "label": "mapping(uint8 => struct RoomBooking.Room[10])",
            "numberOfBytes": "32",
            "value": "t_array(t_struct(Room)6_storage)10_storage"
          },
          "t_string_memory_ptr": {
            "encoding": "bytes",
            "label": "string",
            "numberOfBytes": "32"
          },
          "t_string_storage": {
            "encoding": "bytes",
            "label": "string",
            "numberOfBytes": "32"
          },
          "t_struct(Room)6_storage": {
            "encoding": "inplace",
            "label": "struct RoomBooking.Room",
            "members": [
              {
                "astId": 3,
                "contract": "contracts/RoomBooking.sol:RoomBooking",
                "label": "booked",
                "offset": 0,
                "slot": "0",
                "type": "t_bool"
              },
              {
                "astId": 5,
                "contract": "contracts/RoomBooking.sol:RoomBooking",
                "label": "owner",
                "offset": 1,
                "slot": "0",
                "type": "t_address"
              }
            ],
            "numberOfBytes": "32"
          },
          "t_uint8": {
            "encoding": "inplace",
            "label": "uint8",
            "numberOfBytes": "1"
          }
        }
      },
      "userdoc": {
        "kind": "user",
        "methods": {},
        "version": 1
      }
    }
  }
}